:100000000C9434000C943E000C943E000C943E0082
:100010000C943E000C943E000C943E000C943E0068
:100020000C943E000C943E000C943E000C943E0058
:100030000C943E000C943E000C943E000C943E0048
:100040000C943E000C943E000C943E000C943E0038
:100050000C943E000C943E000C943E000C943E0028
:100060000C943E000C943E0011241FBECFEFD8E04C
:10007000DEBFCDBF0E9440000C9453000C940000E2
:100080001AB884B18C6284B98CB581658CBD90E05E
:1000900089B18917E9F32A988EBD0DB407FEFDCF0B
:0A00A0002A9A982FF5CFF894FFCFAD
:00000001FF
