S01C000041746D656761333238705F5350495F536C6176652E7372656307
S11300000C9434000C943E000C943E000C943E007E
S11300100C943E000C943E000C943E000C943E0064
S11300200C943E000C943E000C943E000C943E0054
S11300300C943E000C943E000C943E000C943E0044
S11300400C943E000C944C000C943E000C943E0026
S11300500C943E000C943E000C943E000C943E0024
S11300600C943E000C943E0011241FBECFEFD8E048
S1130070DEBFCDBF0E9440000C945B000C940000D6
S11300809FEF9AB9249A8CB580648CBD8CB5806836
S11300908CBD78949BB9FFCF1F920F920FB60F922D
S11300A011248F938EB580958BB98F910F900FBECD
S10D00B00F901F901895F894FFCFED
S9030000FC
